S01400004D6F7264654465646F53696D2E7372656374
S11300000C9434000C9451000C9451000C94AC00EA
S11300100C9485000C94D4000C9451000C94510061
S11300200C9451000C9451000C9451000C94510008
S11300300C9451000C9451000C9451000C945100F8
S11300400C9451000C9451000C9451000C945100E8
S11300500C9451000C9451000C9451000C945100D8
S11300600C9451000C94510011241FBECFEFD8E022
S1130070DEBFCDBF21E0A4E0B1E001C01D92A830F5
S1130080B207E1F711E0A0E0B1E0E6E2F5E002C07A
S113009005900D92A430B107D9F70E940F010C947A
S11300A091020C940000FC01908121E030E002C038
S11300B0220F331F6A95E2F72095292320830895A0
S11300C088B1886088B98FE891E00197F1F700C0A2
S11300D0000088B1877F88B90895109205011092B5
S11300E004010E941E0287709078992324F40197DA
S11300F0886F9F6F019690930701809306018FEF9D
S113010085B98BB90E94600008951F920F920FB6B3
S11301100F9211242F933F934F935F936F937F9389
S11301208F939F93AF93BF93EF93FF93349901C041
S1130130359B0E946D00FF91EF91BF91AF919F910C
S11301408F917F916F915F914F913F912F910F907C
S11301500FBE0F901F9018951F920F920FB60F921B
S113016011242F933F934F935F936F937F938F93B8
S11301709F93AF93BF93EF93FF9383B185758535B9
S113018011F00E946000FF91EF91BF91AF919F9198
S11301908F917F916F915F914F913F912F910F902C
S11301A00FBE0F901F9018951F920F920FB60F92CB
S11301B011242F933F934F935F936F937F938F9368
S11301C09F93AF93BF93EF93FF9389B18575853563
S11301D011F00E946000FF91EF91BF91AF919F9148
S11301E08F917F916F915F914F913F912F910F90DC
S11301F00FBE0F901F90189580E480937C00EAE76F
S1130200F0E086E8808380818064808380917A0036
S113021086FDFCCF809178009091790008950E942A
S1130220FC000E9423028AEA84B98AB988E087B96B
S11302308FEF85B98BB988B1806288B988B1877F1F
S113024088B9E8E6F0E0808187608083EBE6F0E03F
S1130250808185658083ECE6F0E080818063808323
S1130260EDE6F0E08081856580830E941E02877040
S11302709078992324F40197886F9F6F0196909347
S113028007018093060178948091040190910501FF
S1130290892BC1F176C083B1C12F90E0012E02C039
S11302A0959587950A94E2F780FD2AC02FEF80E7A1
S11302B092E0215080409040E1F700C00000812F7F
S11302C0869590E0209106013091070182179307EB
S11302D039F481E090E0909305018093040106C015
S11302E061E0610F85E290E00E94530083B190E0E9
S11302F00C2E02C0959587950A94E2F780FFF6CFFD
S11303001E5F01C010E0173030F210E037C089B131
S1130310C12F90E0012E02C0959587950A94E2F7CB
S113032080FD2BC08FEF90E722E081509040204069
S1130330E1F700C00000812F869590E0049620919B
S11303400601309107018217930739F481E090E0A8
S1130350909305018093040106C061E0610F8BE274
S113036090E00E94530089B190E00C2E02C0959554
S113037087950A94E2F780FFF6CF1E5F173038F2B4
S113038083CF95B18AEA982795B99BB189278BB910
S11303908FEF93EC29E0815090402040E1F700C0BA
S11303A0000072CF8F929F92AF92BF92CF92DF9252
S11303B0EF92FF92CF93DF93EC01688179818A8178
S11303C09B81611571058105910521F464E279ED44
S11303D08BE597E02DE133EF41E050E00E942E02DF
S11303E049015A019B01AC01A7EAB1E40E944D0204
S11303F06B017C01ACEEB4EFA50194010E945B0299
S1130400DC01CB018C0D9D1DAE1DBF1DB7FF03C0CC
S11304100197A109B04888839983AA83BB839F77F6
S1130420DF91CF91FF90EF90DF90CF90BF90AF908E
S11304309F908F9008950E94D201089580E091E0EA
S11304400E94D2010895A0E0B0E08093000190934F
S11304500101A0930201B09303010895052E97FBB7
S11304601EF400940E94450257FD07D00E946002CA
S113047007FC03D04EF40C944502509540953095FA
S113048021953F4F4F4F5F4F0895909580957095FC
S113049061957F4F8F4F9F4F08950E948202A59FC1
S11304A0900DB49F900DA49F800D911D112408956B
S11304B0B7FF0C944D020E944D02821B930B0895CA
S11304C0A1E21A2EAA1BBB1BFD010DC0AA1FBB1F54
S11304D0EE1FFF1FA217B307E407F50720F0A21BC6
S11304E0B30BE40BF50B661F771F881F991F1A9433
S11304F069F760957095809590959B01AC01BD015D
S1130500CF010895A29FB001B39FC001A39F700DB6
S1130510811D1124911DB29F700D811D1124911D07
S10905200895F894FFCFDA
S107052601000000CC
S9030000FC
