S0140000436F756E74657252657365742E737265632D
S11300000C943E000C945B000C945B000C948A00EE
S11300100C945B000C945B000C945B000C945B00F0
S11300200C945B000C945B000C945B000C94BA0081
S11300300C945B000C945B000C945B000C945B00D0
S11300400C945B000C945B000C945B000C945B00C0
S11300500C945B000C945B000C945B000C945B00B0
S11300600C945B000C945B006A006D0070007300DC
S1130070760079007C007F008200850011241FBE79
S1130080CFEFD8E0DEBFCDBF11E0A0E0B1E0EAE5FC
S1130090F2E002C005900D92A230B107D9F721E039
S11300A0A2E0B1E001C01D92A330B207E1F70E94C3
S11300B01D010C942B010C940000082E000C990BCC
S11300C0AA0BBB0B8A30910518F5FC01EC5CFF4FC1
S11300D00C9425018EE78BB908958CE08BB90895B3
S11300E086EB8BB908958EE98BB908958CEC8BB9A6
S11300F008958AED8BB908958AEF8BB908958EE03F
S11301008BB908958EEF8BB908958EED8BB9089550
S11301101BB808951F920F920FB60F9211242F93BC
S11301203F934F935F936F937F938F939F93AF937B
S1130130BF93EF93FF931A990CC089E08093000159
S11301401092020185B1877F85B9809100010E94D8
S11301505D00FF91EF91BF91AF919F918F917F913E
S11301606F915F914F913F912F910F900FBE0F9020
S11301701F9018951F920F920FB60F9211242F9370
S11301803F934F935F936F937F938F939F93AF931B
S1130190BF93EF93FF938091000118164CF4809164
S11301A00001815080930001809100010E945D0054
S11301B08091000181110AC080910201811106C061
S11301C085B1886085B981E080930201FF91EF9148
S11301D0BF91AF919F918F917F916F915F914F915B
S11301E03F912F910F900FBE0F901F9018958FEF96
S11301F08AB984B1886084B984B18B7F84B985B1AC
S1130200846085B9E1E8F0E080818D60808388E0D6
S11302109DE39093890080938800EFE6F0E080816D
S113022082608083E8E6F0E0808181608083EBE691
S1130230F0E080818460808308950E94F7008091BB
S113024000010E945D007894FFCFEE0FFF1F059020
S10D0250F491E02D0994F894FFCF17
S105025A090095
S9030000FC
